{
  "contractName": "TodoList",
  "abi": [
    {
      "constant": true,
      "inputs": [],
      "name": "taskCount",
      "outputs": [
        {
          "internalType": "uint256",
          "name": "",
          "type": "uint256"
        }
      ],
      "payable": false,
      "stateMutability": "view",
      "type": "function"
    }
  ],
  "bytecode": "0x608060405260008055348015601357600080fd5b506080806100226000396000f3fe6080604052348015600f57600080fd5b506004361060285760003560e01c8063b6cb58a514602d575b600080fd5b60336045565b60408051918252519081900360200190f35b6000548156fea265627a7a7231582067e4c9f2f984433fd0cf91b52525ad50ce31cdd3e24f1e8c2a5b9f199a1fd61264736f6c63430005100032",
  "source": "//SPDX-License-Identifier: MIT\r\npragma solidity ^0.5.16;\r\n\r\ncontract TodoList {\r\n    uint public taskCount = 0;\r\n}",
  "sourcePath": "C:\\Users\\Admin\\Desktop\\eth-todo-list\\contracts\\TodoList.sol",
  "compiler": {
    "name": "solc",
    "version": "0.5.16+commit.9c3226ce.Emscripten.clang"
  },
  "schemaVersion": "3.4.12",
  "updatedAt": "2023-02-27T22:37:24.060Z",
  "devdoc": {
    "methods": {}
  },
  "userdoc": {
    "methods": {}
  }
}